:020000040800F2
:10000000200A00209D01000829420008F133000861
:1000100025420008CD0800085D51000800000000DE
:10002000000000000000000000000000214D00085A
:10003000D108000800000000894C0008254D000888
:10004000B7010008B7010008B7010008B7010008B0
:10005000B7010008B7010008B7010008B7010008A0
:10006000B7010008B7010008B7010008B701000890
:10007000B7010008B7010008B7010008B701000880
:10008000B7010008B7010008B7010008B701000870
:10009000B7010008B7010008B7010008B701000860
:1000A000B7010008B7010008B7010008B701000850
:1000B000B7010008B7010008B7010008B701000840
:1000C000B7010008B7010008B7010008B701000830
:1000D000B701000845510008B70100085151000858
:1000E000B7010008B7010008B7010008F54D000886
:1000F000B7010008B7010008B7010008B701000800
:10010000B7010008B7010008B7010008B7010008EF
:10011000B7010008454F0008B7010008B701000803
:10012000B7010008B7010008B7010008B7010008CF
:10013000B7010008B7010008B7010008B7010008BF
:10014000B7010008B7010008B7010008B7010008AF
:10015000B7010008B7010008B7010008B70100089F
:10016000B7010008B7010008B7010008B70100088F
:10017000B7010008B7010008B7010008000000003F
:10018000B7010008B7010008DFF80CD000F068FAEA
:1001900000480047ED590008200A00200648804723
:1001A00006480047FEE7FEE7FEE7FEE7FEE7FEE75C
:1001B000FEE7FEE7FEE7FEE7E14D000889010008E3
:1001C0002DE9F05F0546002092469B46884606468C
:1001D000814640241BE0284641464746224600F01F
:1001E00089F953465A46C01A914110D31146184610
:1001F000224600F070F92D1A67EB01084F4622469F
:100200000120002100F067F917EB00094E41201E84
:10021000A4F10104DFDC484631462A464346BDE8E6
:10022000F09FD2B201E000F8012B491EFBD27047CB
:100230000022F6E710B513460A4604461946FFF7B2
:10024000F0FF204610BD2DE9FE4F804681EA0300F5
:10025000C00F0C46009021F0004123F00045B8EBA0
:100260000200A94105D24046214690461C460B4655
:10027000024623F00040104347D0270DC7F30A0081
:10028000C3F30A510290401A019040286BDAC3F37D
:10029000130040F4801B0098924620B10023D2EB5B
:1002A000030A63EB0B0B01985946C0F1400250461C
:1002B00000F011F906460D4650465946019A00F0E5
:1002C00029F910EB08006141002487EA115284EA01
:1002D000E7731A4340D0009A62B3019A012A4FEAA9
:1002E000075215DC001B61EB02014FF0004202EAED
:1002F0000752CDE90042001C41F5801132462B46E1
:1003000000F060F903B0BDE8F08F40462146F9E700
:10031000001B61EB0201001C41F5801300185B41DA
:100320002018A2F5001747EB030140EAD570B61973
:100330006D4111E06D084FEA360645EAC0754FEA97
:100340000752001B61EB0201001C41F580114908B6
:100350004FEA30000019514132462B4603B0BDE848
:10036000F04F00F020B90098012240000023D0EBAC
:10037000020263EBE073009821464FEAE074B8EBA9
:10038000000061EB0401E9E783F000435BE781F0E3
:10039000004158E72DE9FE4F81EA030404F00044D0
:1003A00021F0004100944FF0000B23F0004350EA8D
:1003B00001045ED052EA03045BD0C3F30A54C1F3D4
:1003C0000A552C44A4F2F3340194A0FB0254C1F367
:1003D000130141F48011C3F3130343F4801301FBB1
:1003E000024400FB034E840A970A44EA815447EA18
:1003F0008357A4FB076802958D0A05FB07854FEA22
:10040000932C04FB0C542705029D4FEA065847EA3B
:100410001637B5EB08056EEB070C870E920E47EA10
:10042000811742EA8312A7FB0201B6EB0B0164EBD2
:1004300000042B0D43EA0C335E1844EB1C50DA46E3
:100440005146E7FB0201C5F313044FEA0B3343EABD
:1004500014534FEA0432019C43EA0603A4F10C044E
:100460000294009CCDE900B400F0ACF803B0BDE804
:10047000F08F00200146F9E700F0004230F0004024
:100480000AD0C10D01F56071C0F3160042EA0151B6
:10049000C20840071143704700200146704701F031
:1004A000004330B421F0004150EA010206D00A0DA9
:1004B000A2F56072C1F31301002A02DC30BC0020F7
:1004C0007047440F44EAC104C100E01830BC00EB9F
:1004D000C25000F031B8202A04DB203A00FA02F1C1
:1004E000002070479140C2F1200320FA03F3194322
:1004F00090407047202A04DB203A21FA02F00021C4
:10050000704721FA02F3D040C2F120029140084323
:1005100019467047202A06DBCB17203A41FA02F031
:1005200043EAE07306E041FA02F3D040C2F1200250
:1005300091400843194670470029A8BF7047401CE6
:10054000490008BF20F00100704710B4B0FA80FCE9
:1005500000FA0CF050EA010404BF10BC704749B126
:10056000CCF1200421FA04F411FA0CF118BF012196
:1005700021430843A3EB0C01CB1D4FEA00614FEA76
:10058000102042BF002010BC704700EBC350104445
:100590000029A4BF10BC7047401C490008BF20F0D0
:1005A000010010BC704710B5141E73F1000408DA86
:1005B000401C41F1000192185B411A4301D120F027
:1005C000010010BD2DE9F04D92469B4611B1B1FAE4
:1005D00081F202E0B0FA80F220329046FFF77BFF12
:1005E00004460F4640EA0A0041EA0B0153465A46C8
:1005F000084313D0114653EA010019D0C8F1400254
:100600005046FFF777FF05460E465046594642468C
:10061000FFF761FF084305D0012004E0204639467A
:10062000BDE8F08D0020054346EAE0762C433743D1
:100630000A986305E40AA0EB08000022FD0A44EAD8
:1006400047540A3002D500200146E9E70105101998
:100650006941DDE9084500196941BDE8F04DA2E7AF
:100660001CB509480090094801900546009C06E029
:10067000E06840F0010394E8070098471034AC426A
:10068000F6D3FFF785FD0000DC640008FC64000879
:10069000B0B540F2CC05C2F200052878012840F040
:1006A000BF8041F20004C4F202042046042100F09D
:1006B00087FAA8752046082100F082FA85F8220002
:1006C0002046102100F07CFA85F82E0020460121FA
:1006D00000F076FAE97D85F83A00012906D0E1B903
:1006E000A97D012904BF0121E97516E0A97D29B181
:1006F000012912D1696801310EE000BF6968322911
:1007000002DB4FF4807102E0072903DB0121A9829B
:10071000002129770021E975696095F8231069B1F6
:1007200001291AD195F82210012913D0A9B9A96875
:1007300031292BDD4FF480712BE000BF95F822109A
:10074000012904BF012185F8231095F82F1039B92C
:100750002BE000BFA9680131A96095F82F1021B3E3
:10076000012929D195F82E10012907D021BBE9686C
:10077000312941DD4FF4807141E000BFE96801316A
:10078000E96095F83B10D1B945E000BF072904DBCB
:1007900001212984002185F82810002185F82310E3
:1007A000A96095F82F100029DAD195F82E100129AB
:1007B00004BF012185F82F1095F83B1059B301298A
:1007C0002ED1012808D0002818BFB0BD28693128D3
:1007D00006DD4FF4807006E0286901302861B0BD65
:1007E000072804DB01202887002085F8400000202E
:1007F00085F83B002861B0BD072904DB0121A985EC
:10080000002185F83410002185F82F10E96095F853
:100810003B100029D3D1012804BF012085F83B00FB
:10082000B0BD000010B540F2B004C2F2000460791F
:10083000042849D8DFE800F004301826120000BF71
:10084000012005F0C7F805F0A5F840F23400627900
:10085000C2F2000002210180501C34E00120BDE8FA
:10086000104005F0B7B800BF40F2E000C2F200004F
:100870000078012828D1002005F0ACF805F0ECF94B
:100880001FE000BFE088062816D0042810D00228F8
:100890001AD104F095FD11E040F23400C2F20000DC
:1008A000008888B1E08005F0CFF905F07BF808E01A
:1008B00004F0B6FD02E000BF04F0EEFD002808BF22
:1008C00010BD60790130607110BD0000FEE70000CE
:1008D0007047000072B600BFFEE700004AF6AB2288
:1008E000C4F24A020021C2634FF07E52C0E90512F1
:1008F00001224FF6FF7380F8342000224FF07C5C19
:10090000C7F67F73C4F220120170C0E901C3C0E9C9
:100910000333C0E90711C0E90911C0E90B11826373
:1009200080F8401080F85C10C0E91111C0E9131183
:10093000C0E91511C0E9181180F86810C0E91B1151
:100940007047000070B5866D044600F045F994F8D4
:100950003510022928D105462068216C026822F052
:1009600016020260426922F08002426109B9A16C5C
:1009700019B1016821F008010160016821F001014D
:10098000016000BF20680068C00715D000F024F99E
:10099000401B0628F6D320206065032084F835002C
:1009A000002184F8341070BD802060650120002192
:1009B00084F8341070BD00BFE06D3F2101FA00F0F3
:1009C000B060012084F835000020002184F8341044
:1009D00070BD000090F83510022909D1052180F87A
:1009E00035100068016821F00101016000207047A6
:1009F0008021416501207047B0B5044600F0ECF855
:100A0000054640F20000C2F200000078611C18BFE9
:100A1000044400BF00F0E0F8401BA042FAD3B0BD90
:100A20002DE9F04F83B000F1200200F13E4741F67E
:100A30000045009207F1FF77C4F2020508224FEA51
:100A4000B726A84208BF072200254FF000084FF044
:100A50000009072E38BF4FEAB72201920AE000BF13
:100A600009F1010908F10208B9F1100F05F10405B7
:100A700000F0A2800F68012202FA09FE17EA0E0AAE
:100A8000EED0D1F804C003220CF003077E1E02FA58
:100A900008F4012E6FEA040B12D88468CE6804EAC9
:100AA0000B0406FA08F634438460446824EA0E0610
:100AB000CCF3001404FA09F42643466004E000BFB6
:100AC000032F01D103271EE0C6688C6806EA0B06D7
:100AD00004FA08F42643022FC66014D16FF0030213
:100AE000009E02EA590756F807C005F01C040F22C1
:100AF0000B69A2402CEA0202A3401A43F251D1F83A
:100B000004C00CF00307026807FA08F302EA0B02BC
:100B10001A431CF4403F0260A2D0002243F6440373
:100B20000292C4F202031A6843F6004442F480427F
:100B30001A601A68C4F2010402F480420292029A16
:100B400029F003024FF6084C2244CFF6FF7C52F8FE
:100B50000C3005F00C070F26BE40B343019E06FA89
:100B600007F73B4342F80C30A2684B6842EA0A0799
:100B700043F60C4CDE0258BF22EA0A07A760C4F213
:100B8000010CDCF800209E0242EA0A0758BF22EA64
:100B90000A07CCF8007062689E0342EA0A0758BF51
:100BA00022EA0A0767602268DB0342EA0A0758BFA5
:100BB00022EA0A07276053E703B0BDE8F08F000080
:100BC0000069084018BF012070470000002A08BFD4
:100BD000090481617047000040F21860C2F2000011
:100BE00000687047002804BF01207047F0B581B04D
:100BF000044690F83D0028B9002084F83C002046C7
:100C000000F050F9242084F83D002068016821F0AC
:100C100001010160016841F400410160016821F4B3
:100C20000041016000F0B8FB636848F2A16CC0F2BB
:100C3000010C40F60011C0F23D0163453CBF48F293
:100C40008041C0F21E01884202D2012001B0F0BDF5
:100C50004DF68361C4F21B31A0FB01122168970C91
:100C6000D1F804E04FF496762EF03F0545EA924520
:100C70004D60774348F638160D6AC0F24106A7FB6F
:100C8000067625F03F07634538BF960C721C3A4341
:100C90000A62CA6948F2A0664CF6FF77C0F2010604
:100CA000B34222EA07020BD801385B00B0FBF3F035
:100CB00001306FF31F30042898BF04201BE000BFF1
:100CC000A768013857B119277B43B0FBF3F0013017
:100CD0006FF31F3070B100F5804007E003EB430372
:100CE000B0FBF3F001306FF31F3018B100F5004096
:100CF00001E000BF01201043C8610868D4E9072360
:100D000020F0C000104318430860886848F2FF32A2
:100D100004F10C0790438CCF18431043A6698860F8
:100D2000C86820F0FF0038433043C860086840F0CE
:100D30000100086000202021206484F83D10206319
:100D400084F83E0001B0F0BD2DE9F04383B0994630
:100D500016460F460446FFF73FFF94F83D10202942
:100D600024D10546206800BF816989071AD5FFF79D
:100D700033FF411B20681A29F6D381698907F3D50F
:100D800000202021206384F83D1084F83E00216C6F
:100D900041F02001216484F83C00022003B0BDE84A
:100DA000F08300BF94F83C10012903D1022003B066
:100DB000BDE8F083012284F83C200368DDE90B18CC
:100DC0000A9ADB0703D1036843F001030360036859
:100DD00023F400630360212084F83D00402084F860
:100DE0003E000020206462626185608D3946208566
:100DF0000020CFF6FF70E062204632464B46CDE938
:100E0000008502F0F7FA18B1012003B0BDE8F083C5
:100E1000208D98B9204641462A4602F04FFB88B300
:100E2000206C0428F0D12068016841F40071016051
:100E3000012003B0BDE8F0830004EBD0204641461A
:100E40002A4602F0EBFC0028EAD1616A22680846D3
:100E500010F8013B1361238D6062581E2085678D59
:100E6000013F678557697F07E6D50704E4D04878D6
:100E70001061881C6062981E2085618D0139618532
:100E8000DAE700BF2068016841F4007101602020AA
:100E900084F83D00002084F83E0084F83C0003B054
:100EA000BDE8F083B0B586B0006845F60001C4F235
:100EB000000100248842CDE90444CDE902440194B4
:100EC0002ED045F20041C4F20001884251D143F6D0
:100ED00030050094C4F20205286801A940F0020020
:100EE0002860286800F00200009000984FF4C0705D
:100EF00001901220CDE90204032004900420059003
:100F000040F20040C4F20200FFF78AFD0094286915
:100F100040F400102861286900F4001027E000BFA9
:100F200043F630050094C4F20205286801A940F098
:100F300002002860286800F00200009000984FF43A
:100F4000406001901220CDE90204032004900420A7
:100F5000059040F20040C4F20200FFF761FD0094EA
:100F6000286940F480002861286900F4800000901E
:100F7000009806B0B0BD000040F2000040F21861D9
:100F8000C2F20000C2F2000100780A681044086052
:100F90007047000080B543F60040C4F202000168CB
:100FA00041F400710160016841F4806101600168F1
:100FB00041F480710160032000F086F80F2000F0FA
:100FC00005F800F027F8002080BD000070B540F261
:100FD0000006C2F2000640F220013278C2F200019F
:100FE0004FF47A730968B3FBF2F20446B1FBF2F1F5
:100FF000084600F033FF0F2C4FF0010508D838B930
:101000004FF0FF3021460022002500F031F87460D7
:10101000284670BD82B0002043F640010190C4F222
:1010200002014A6842F480424A604A6802F48042FF
:101030000192019A0090086840F0805008600868AA
:1010400000F080500090009802B07047002848BF20
:10105000704700F01F01012202FA01F11C2202EA8E
:10106000D0004EF20012CEF2000281507047000014
:1010700010B54EF60C5CCEF2000CDCF80030C3F379
:10108000022E8EF00704042C28BF0424BEF10303B3
:101090004FF0FF3E0EFA04F438BF0023A1439940FD
:1010A0000EFA03F39A43114300F00F0200F160437C
:1010B0000901043A03F564436244002848BF02F181
:1010C0000C03197010BD00004EF60C51CEF2000159
:1010D0000A684FF6FF031A4060F30A2242F080606C
:1010E00040F0FD7008607047F0B581B004460068BC
:1010F00010F0050F2DD06827C4F2472743F670067D
:101100000020C4F202063860FFF766FD054600BF06
:1011100056F8700C000105D5FFF75EFD401B022854
:10112000F6D93FE0D4E90101090741EA8010706176
:1011300001203860FFF750FD054600BF56F8700CDF
:10114000000105D4FFF748FD401B0228F6D929E02D
:10115000206880074FF0000058D543F67006C4F2AF
:101160000206009056F8300C47F2000740F080501D
:1011700046F8300C56F8300CC4F2000700F08050EE
:1011800000900098386840F480703860FFF724FDC4
:10119000054600BF3868C00508D4FFF71DFD401B99
:1011A0000228F7D9032001B0F0BD00BF306810F469
:1011B000407013D0E16801F4407188420ED030686D
:1011C00040F64061C4F24721012220F440700A60D9
:1011D00000220A6030603068C00719D1E06856F814
:1011E000681C4FF6FF4300F4407221F4F811C0F67A
:1011F000FF730340B2F5407F08BF194346F8681CEF
:1012000031686FF31F3008433060002001B0F0BD3B
:10121000FFF7E2FC054641F2883700BF30688007DF
:10122000DCD4FFF7D9FC401BB8424FF00300F5D9DE
:10123000ECE70000002804BF012070472DE9F041D1
:1012400043F60808C4F202080446D8F8F8030D462D
:1012500000F00700814207D988F8F853D8F8F8035E
:1012600000F00700A84277D12068810717D5410711
:1012700005D5D8F8001041F4E051C8F80010010776
:1012800005D5D8F8001041F46041C8F80010D8F82E
:101290000010A26821F0F0011143C8F80010C00747
:1012A00040D1D8F8F80300F00700854207D288F84B
:1012B000F853D8F8F80300F00700A8424CD1206892
:1012C000410707D5D8F80010E26821F4E051114336
:1012D000C8F80010000708D5D8F80000216920F4EC
:1012E000604040EAC100C8F8000000F07DF8D8F87E
:1012F000001045F6A442C1F30311C0F60002515C90
:1013000040F2200220FA01F140F20400C2F2000093
:101310000068C2F200021160FFF758FE0020BDE82D
:10132000F08100BF6068811E022907D258F8081CAE
:1013300089015CBF0120BDE8F08111E0012807D1DF
:1013400058F8081C89035CBF0120BDE8F08107E064
:1013500058F8081C890703D40120BDE8F08100BFBC
:10136000D8F8001021F003010843C8F80000FFF787
:1013700033FC064641F28837D8F80000616800F077
:101380000C00B0EB810F8CD0FFF726FC801BB8421D
:10139000F2D90320BDE8F08140F2200043F60801B5
:1013A000C2F20000C4F202010068096845F6B442C6
:1013B000C1F38221C0F60002515CC84070470000B2
:1013C00040F2200043F60801C2F20000C4F202011C
:1013D0000068096845F6B442C1F34231C0F6000224
:1013E000515CC8407047000010B543F60404C4F2D5
:1013F00002046168C1F3810142F20040C0F2F400CE
:10140000DFE801F002040A0210BD00BF47F6400009
:10141000C0F27D1010BD00BF20682168236849021A
:1014200047F64001C0F27D1100F03F02C3F388107F
:101430005CBF42F20041C0F2F401A1FB00010023B5
:10144000FEF7BEFE21680222C1F3014102EB410119
:10145000B0FBF1F010BD0000002804BF0120704770
:101460002DE9F04182B00446007843F60006C0073B
:10147000C4F202060CD0B06800F00C00042840F062
:1014800081803068800303D56068002800F068819F
:10149000207880071BD5B06810F00C0F09D0B06819
:1014A00000F00C00082840F087807068400200F1CE
:1014B00083803068800703D5E068012840F05081C0
:1014C0003068216920F0F80040EAC10030602078DF
:1014D000000713D4207840072AD4A569002D00F016
:1014E0003A81B06800F00C00082840F0A580012D7A
:1014F00040F00E81012002B0BDE8F0816069002853
:1015000000F082800020C4F247200121C0F8801E34
:10151000FFF762FB054600BF706F8007DAD4FFF764
:101520005BFB401B0228F7D9032002B0BDE8F08125
:10153000306C5FEAC0080AD400200190306C40F0A3
:1015400080503064306C00F080500190019847F278
:101550000007C4F200073868C00547D4386840F473
:1015600080703860FFF738FB054600BF3868C0055B
:101570003CD4FFF731FB401B0228F7D9032002B00F
:10158000BDE8F081B06800F00C00082803D1706855
:1015900040023FF576AF61683068B1F5803F07D013
:1015A000B1F5A02F40F09A8040F480203060306880
:1015B00040F4803030609AE0E068002840F200009B
:1015C000C4F247205CD001210160FFF705FB05460E
:1015D000306880073FF574AFFFF7FEFA401B022822
:1015E000F6D9032002B0BDE8F08100BFA168306FDA
:1015F000012905D0052955D140F004003067306F2E
:1016000040F00100306756E00020C4F2472000217E
:10161000C0F8801EFFF7E0FA054600BF706F800734
:101620007FF558AFFFF7D8FA401B0228F6D9032000
:1016300002B0BDE8F08100BF0027C4F247270020B8
:101640003866FFF7C9FA022D05460DD130688001D2
:1016500040F18A80FFF7C0FA401B02284FF00300D8
:10166000F4D902B0BDE8F0813068800173D5FFF78E
:10167000B3FA401B02284FF00300F5D9F1E700BF91
:1016800000210160FFF7A8FA054600BF3068800717
:101690007FF51DAFFFF7A0FA401B02284FF00300B3
:1016A000F4D9DEE720F001003067306F002920F028
:1016B000040030677AD0FFF78FFA054641F2883789
:1016C000306F800700F18480FFF786FA401BB84234
:1016D000F6D9032002B0BDE8F08100BF20F48030CD
:1016E00030603068002920F4802030607AD0FFF725
:1016F00073FA0546306880033FF5CAAEFFF76CFA0F
:10170000401B6428F6D9032002B0BDE8F08100BF79
:101710007068E16900F480028A4221D1216A00F0F8
:101720003F028A421CD147F6C071626A0140B1EBA8
:10173000821F15D1A16A4FF6FF73C903994300F4C4
:101740004032A1F580318A420AD1E16A00F070602E
:10175000B0EB016F04D1002002B0BDE8F08100BF02
:10176000012002B0BDE8F08104F11C052FCD084333
:1017700040EA8210D9034FF6FF729143A1F5803100
:1017800040EA05600843706001203866FFF724FADC
:10179000044600BF30688001DDD4FFF71DFA001B4E
:1017A00002284FF00300F5D95BE700BFFFF714FAFA
:1017B000054641F2883700BF306F800708D5FFF734
:1017C0000BFA401BB8424FF00300F5D949E700BFC0
:1017D000B8F1000F3FF581AE306C20F080503064DE
:1017E0007BE600BFFFF7F8F9054600BF30688003CD
:1017F0007FF54EAEFFF7F0F9401B64284FF0030071
:10180000F4D92EE7F0B581B00446007F01284FF0EF
:1018100002004AD00E460121217760772068CA2154
:1018200041625321416281681746490518D4816895
:1018300021F480618160C16861F4906121F480616C
:10184000C160FFF7C9F905462168C868400719D487
:10185000FFF7C2F9401BB0F57A7FF5D90EE000BF63
:10186000FFF7BAF9054600BF2068C1684907DED511
:10187000FFF7B2F9401BB0F57A7FF5D92168032252
:1018800003200DE08868012220F007008860886846
:10189000384388604E61886840F48060886000202A
:1018A000FF234B6200216277217701B0F0BD000079
:1018B000002804BF01207047B0B50446407F20B91E
:1018C00000202077204600F071F802206077216820
:1018D000C868C0065ED4CA20486253204862C868FF
:1018E000400615D4C86840F08000C860FFF774F95E
:1018F0002168CA6852060BD4054600BFFFF76CF991
:10190000401BB0F57A7F49D82168C8684006F5D5F4
:1019100088684FF6BF72CFF68F7210408860D4E9A6
:10192000010CD4E90335626928438D6810432843CC
:1019300088600B61086940EA0C400861C86820F0C3
:101940008000C860886880061AD447F65F70C0F2CD
:101950000100C860FFF740F9054600BF2168C8686C
:1019600080060DD4FFF738F9401BB0F57A7FF5D922
:10197000042060772068FF2141620120B0BD00BFD4
:10198000086C20F480200864A0690A6C1043086485
:10199000FF204862012060770020B0BD04206077FE
:1019A0002068C168FF2141620120B0BD80B584B0CC
:1019B000006842F60002C4F2000200219042029147
:1019C000019101D004B080BD022000904FF400705E
:1019D00003906846FFF788FB002818BFFEF77AFFE0
:1019E00040F63C60C4F247200121016004B080BD94
:1019F0002DE9F0410446007F01284FF0020008BFA6
:101A0000BDE8F0810123237760773AB14878CA783E
:101A10008E78000240EA024846E000BF48784FF066
:101A2000CD0CC20642BF00F0EF000A304870CA7801
:101A30008E78A2F10A07FDB205FB0CF5ED0A05EB65
:101A40008503A7EB4303A0F10A0703EB0513FDB2DF
:101A50005FFA82FE05FB0CF5BEF1090F88BF03F1AA
:101A60001002ED0A5FFA82FE05EB8502A7EB420247
:101A7000C3B202EB0512092B88BF02F11000A6F1D8
:101A80000A02D3B203FB0CF3C0B2DB0A000203EB81
:101A9000830740EA0E48F0B2A2EB470202EB0312C2
:101AA000092888BF02F110060F782168CA20486211
:101AB00053204862C868400614D4C86840F08000CB
:101AC000C860FFF789F82168CA6852060AD405463B
:101AD000FFF782F8401BB0F57A7F35D82168C868D7
:101AE0004006F5D5F0B240EA08007A0320F0C000C5
:101AF00010434860C86820F08000C860886880068D
:101B000018D447F65F70C0F20100C860FFF764F8B0
:101B1000054600BF2168C86880060BD4FFF75CF853
:101B2000401BB0F57A7FF5D9042060772168012049
:101B300003E000BF012060770020FF224A620021FD
:101B40002177BDE8F08100BF042060772168C86874
:101B50000120F2E72DE9F0470446007F01284FF00D
:101B6000020008BFBDE8F0870D46012121776077AC
:101B70002168886832B140060CD44FF0000885F81F
:101B800003800AE0400611D44FF0000885F8038076
:101B90000FE000BFE8784FEA80586A78287895F817
:101BA00002A0120242EA004945E000BFE8784FEA8D
:101BB000805828784FF0CD0EA0F10A06F3B203FB4F
:101BC0000EF36A78DB0A03EB8307A6EB4706A2F164
:101BD0000A0706EB0313FEB25FFA80FC06FB0EF663
:101BE00095F802A0BCF1090F88BF03F11000F60AB6
:101BF0005FFA80FC06EB8600D3B2A7EB400000EB57
:101C00000610092B88BF00F11002D0B2AAF10A0217
:101C1000D3B203FB0EF3DB0A000203EB830740EAB7
:101C20000C495FFA8AF0A2EB470202EB0312092883
:101C300088BF02F1100ACA20486253204862C8686F
:101C4000400615D4C86840F08000C860FEF7C4FFA5
:101C50002168CA6852060BD4064600BFFEF7BCFFD7
:101C6000801BB0F57A7F43D82168C8684006F5D557
:101C70005FFA8AF040EA090047F67F7240EA0800FE
:101C8000C0F27F0210400860886820F480208860DD
:101C9000D5E903028B68104318438860C86820F0B8
:101CA0008000C8608868800618D447F65F70C0F26C
:101CB0000100C860FEF790FF054600BF2168C868B4
:101CC00080060BD4FEF788FF401BB0F57A7FF5D96C
:101CD000042060772168012003E000BF01206077C5
:101CE0000020FF224A6200212177BDE8F08700BF73
:101CF000042060772168C8680120F2E770B528B138
:101D0000416A29B100210161142106E0012070BD62
:101D10004168B1F5827F02D01C210022425000268A
:101D2000866290F8511029B980F85060054600F09D
:101D30003DF82846022180F8511090E82E0002F468
:101D400082720C6803F4044324F040040C601A44CB
:101D500005F4006305691A4405F0020345691A4455
:101D600005F001038569C4691A4405F400731A4437
:101D700004F03803046A1A4404F08003846A1A43A6
:101D800004F400531A430A60436A042202EA15422B
:101D900003F010031A444A60CA6922F40062CA615F
:101DA0000121466580F85110304670BD2DE9F043A1
:101DB00087B043F600050068C4F200050026A8427B
:101DC0000696CDE904660396029603D007B0BDE8F7
:101DD000F08300BF43F630000196C4F202000169AF
:101DE00002AC41F48041016101694FF0020801F445
:101DF000804101910199019601684FF0030941F07A
:101E0000040101600168052701F0040101910199B5
:101E10000196016841F0020101600068214600F06E
:101E20000200019001980C20029005F5E830CDE900
:101E30000386CDF814900697FEF7F2FD4FF4085094
:101E4000CDE9020805F5E6302146CDE9046906979B
:101E5000FEF7E6FD07B0BDE8F0830000411E00205C
:101E6000B0EB116F1CBF012070474EF21002CEF292
:101E7000000251604EF62351CEF20001F0230B70A8
:101E800007219060116070477047000070470000A4
:101E900090F83C20012A04BF02207047B0B501F140
:101EA00008053CCDD1E900CE23F47C5322F47052D6
:101EB0001A432EF4F0431A432CF4E0431A4324F45B
:101EC000C0431A432A43C96922F48042036811437C
:101ED0005964002180F83C100020B0BD90F83C20EF
:101EE000012A4FF0020254D010B580F83D2002685C
:101EF000D2F804E0D2F808C00C682EF07003234337
:101F000041F2FF74C4F20004A24253600EDC40F2BE
:101F1000FF73C4F200039A4216DCB2F1804F2BD05B
:101F200040F20043C4F2000324E000BF40F2FF335C
:101F3000C4F201039A4213DC41F60003C4F2000329
:101F40009A4219D0002313E040F60003C4F20003C4
:101F50009A4211D040F60043C4F200030AE000BFE9
:101F600044F20003C4F201039A4205D040F2004358
:101F7000C4F201039A4204D149682CF0800319434A
:101F800091600121002280F83D1080F83C20BDE8DE
:101F90001040104670470000002804BF0120704721
:101FA00010B5044690F83D0028B9002084F83C00A4
:101FB000204600F01FF8022084F83D002068211D13
:101FC00002F01EFF012084F8460084F83E0084F8E9
:101FD0003F0084F8400084F8410084F8420084F80F
:101FE000430084F8440084F8450084F83D00002054
:101FF00010BD000080B584B0006841F60001C4F255
:10200000000188422ED044F20001C4F2010188424E
:1020100016D00021C4F20101884220D10020039093
:1020200043F64400C4F20200016841F0010101607E
:10203000006800F001000390039804B080BD00BF69
:102040000020029043F64400C4F20200016841F40B
:1020500080310160006800F480300290029804B082
:1020600080BD00BF0020019043F64400C4F202008E
:1020700050F8041C002241F0400140F8041C50F8C4
:10208000040C002100F04000019001982B20FEF785
:10209000EFFF2B2004B0BDE88040FEF7D7BF000063
:1020A00090F83D1001291CBF01207047022180F8E3
:1020B0003D10006841F2FF72C168C4F20002904214
:1020C00041F00101C1600DDC40F2FF71C4F200017A
:1020D000884215DCB0F1804F2AD040F20041C4F2B2
:1020E000000123E040F2FF31C4F20101884213DC19
:1020F00041F60001C4F20001884219D0002113E02A
:1021000040F60001C4F20001884211D040F60041BF
:10211000C4F200010AE000BF44F20001C4F2010170
:10212000884205D040F20041C4F20101884206D144
:10213000816801F00701062904BF0020704701688B
:1021400041F00101016000207047000090F83C2040
:10215000012A4FF002026CD080B580F83D20D0F803
:1021600000C04FF67772DCF8083023EA0202CCF8A0
:1021700008200B684F2B29DC1F2B45DD202B46D078
:10218000302B44D0402B40F0AF80D1F804E0C96838
:10219000DCF82030DCF8202022F00102CCF82020EE
:1021A000DCF8182022F0F00242EA011123F00A02C2
:1021B00042EA0E02CCF81810CCF82020DCF8081007
:1021C00041F0470121F0300128E000BF6F2B33DDE3
:1021D000B3F5005F74D0B3F5805F21D0702B40F071
:1021E0008380D1E901E3C968DCF8082043EA0E03E3
:1021F00022F47F4243EA01211143CCF80810DCF8B5
:10220000081041F0770109E00BB1102B6CD1DCF81C
:10221000081021F07001194341F00701CCF80810B3
:102220000022012180F83D10002180F83C10BDE81B
:1022300080401046704700BF502B21D0602B53D1F7
:10224000D1F804E0C968DCF82030DCF8202022F066
:102250001002CCF82020DCF8182022F4704242EA68
:10226000013123F0A00242EA0E12CCF81810CCF88B
:102270002020DCF8081041F0670121F01001CDE7C3
:10228000D1F804E0C968DCF82030DCF8202022F026
:102290000102CCF82020DCF8182022F0F00242EAFB
:1022A000011123F00A0242EA0E02CCF81810CCF811
:1022B0002020DCF8081041F0570121F02001ADE7A3
:1022C000D1E901E3C968DCF8082043EA0E0322F4EF
:1022D0007F4243EA01211143CCF80810DCF80810D2
:1022E00041F480419AE700BF01229AE7002804BF29
:1022F000012070472DE9F047044690F83D000D4657
:1023000028B9002084F83C00204600F049F802205B
:1023100084F83D00206844F207028168914381609F
:10232000211D02F06DFD20684FF6FF7881688269FB
:10233000D0F820C0D5E9003ED5E9026A43EA010998
:10234000AB6922EA080246EA03234FF6FC46B34390
:10235000D5E9076742EA0A0229691A4342EA0622D6
:1023600042EA01112CF0AA026B6942EA0E0241EA2C
:10237000073142EA0312C0F808908161026201202D
:1023800084F8460084F83E0084F83F0084F8420058
:1023900084F8430084F83D000020BDE8F087000089
:1023A00080B586B0006840F60002C4F20002002149
:1023B0009042CDE90411CDE90211019124D040F2FF
:1023C0000041C4F20001884247D1002043F63001A9
:1023D0000090C4F202010A6942F002020A610A692D
:1023E00002F002020092009A0090086840F001009A
:1023F00008600868C02100F00100009000980020EB
:10240000C4F202001FE000BF43F630000091C4F2A6
:102410000200026942F004020261026902F0040251
:102420000092009A0091016841F008010160006883
:102430004FF4405100F00800009000980020C4F2D2
:10244000020000F5406001910221029100220591F5
:1024500001A9CDE90322FEF7E3FA06B080BD000032
:1024600080B590F83E2090F83F3090F842E090F828
:1024700043C004290AD0B9B9012A4FF0010208BFAC
:10248000BEF1010F34D0104680BD00BF012B4FF0CC
:10249000010208BFBCF1010FF5D1022180F83F1005
:1024A00080F8431000681EE0012A4FF0010208BFC7
:1024B000012BE8D1BEF1010FE5D1BCF1010FE2D152
:1024C000022280F83E2080F83F2080F8422080F8E9
:1024D000432091B10068016A21F001010162016AA3
:1024E00041F00101016210216FF0100209E000BF0C
:1024F000022180F83E1080F84210006801216FF040
:102500000102036A1A400262026A11430162016811
:10251000002241F001010160104680BD70470000BB
:1025200070B504460068C5680669B10716D515F090
:10253000020113D06FF0020101610121217780694E
:10254000800703D02046FFF7E9FF05E0204600F0B2
:102550008FF8204600F0CEF900202077700719D5BB
:1025600015F0040016D020686FF00401016102210B
:102570002177806910F4407F04D02046FFF7CEFF1A
:1025800006E000BF204600F073F8204600F0B2F9E4
:1025900000202077300717D515F0080014D02068E8
:1025A0006FF00801016104212177C069800703D021
:1025B0002046FFF7B3FF05E0204600F059F820461B
:1025C00000F098F900202077F00619D515F01000DA
:1025D00016D020686FF01001016108212177C069D1
:1025E00010F4407F04D02046FFF798FF06E000BFBC
:1025F000204600F03DF8204600F07CF900202077CE
:10260000F00718BF15F0010002D1300609D412E01E
:1026100020686FF001010161204600F0F5F93006F5
:1026200009D515F0800006D020686FF080010161A7
:102630002046FFF729FC700609D515F0400006D0AA
:1026400020686FF040010161204600F071FAB00689
:1026500058BF70BD15F0200008D021686FF020022F
:1026600020460A61BDE87040FFF710BC70BD000055
:102670007047000090F83C30012B04BF02207047E7
:102680004FEAB202032A00F2FF802DE9F043DFE8AF
:1026900002F003B13F7F00BF036840F200461C6AAE
:1026A0001A6A24F0020422F001021A621A46D3F8D0
:1026B00004C052F818EF8F6843F48065C4F2010635
:1026C000B54244EA070405D1CF6824F00C0427F092
:1026D00004073C430F68B54206D1D1E905582CF4F4
:1026E00040762E4346EA080C2EF073063743C3F8B3
:1026F00004C09F614F6809695F631C629F6947F06E
:1027000008079F619F6927F004079F61B1E000BF40
:10271000036840F200481C6A1A6A24F4007422F428
:1027200080721A621A46D3F804C052F81CEF8F6800
:1027300043F48065C4F20108454544EA072408D102
:10274000CF6840F2FF463F0224F4406427EA0606C1
:102750003443D1F80090454506D1D1E905562CF413
:1027600040572E4347EA061C2EF0730747EA090735
:10277000C3F804C0DF614F680969DF631C62DF6969
:1027800047F00807DF61DF6927F00407DF6170E0C9
:10279000036840F20045D3F820C01A6A43F480670A
:1027A00022F480521A621A465C6852F81C8FD1F8E3
:1027B00000E08E68C4F20105AF4204D14D6924F4F3
:1027C000804444EA85142CF4005747EA063728F47D
:1027D000E64646EA0E265C60DE614E6809691E64C4
:1027E0001F62DF6947F40067DF61DF6927F48067F4
:1027F000DF613DE0036840F200481C6A1A6A24F079
:10280000200422F010021A621A46D3F804C052F8CB
:1028100018EF8F6843F48065C4F20108454544EA27
:10282000071407D1CF686FF0400624F0C00406EA11
:1028300007163443D1F80090454506D1D1E9055635
:102840002CF440672E4347EA860C2EF4E64747EA0D
:102850000927C3F804C09F614F6809699F631C6220
:102860009F6947F400679F619F6927F480679F61B4
:1028700009021368194311600021BDE8F0430022EA
:1028800080F83C20084670470121002280F83C2057
:1028900008467047002804BF0120704710B5044661
:1028A00090F83D0028B9002084F83C00204600F054
:1028B0001FF8022084F83D002068211D02F0A0FAD4
:1028C000012084F8460084F83E0084F83F0084F834
:1028D000400084F8410084F8420084F8430084F802
:1028E000440084F8450084F83D00002010BD00003D
:1028F0007047000070470000C1B1042908D00829C2
:1029000014BF41224022825C012A05D016E000BF9C
:102910003F22825C012A11D10222082910D0042909
:1029200014BF80F8412080F83F200BE090F83E2053
:10293000012A03D1022280F83E2003E001207047E3
:1029400080F84020006801F01F010122036A02FAAA
:1029500001F123EA01020262026A114341F2FF72AD
:10296000C4F20002904201620CDC40F2FF71C4F23A
:102970000001884214DCB0F1804F37D040F20041B2
:1029800016E000BF40F2FF31C4F20101884215DCBD
:1029900041F60001C4F20001884227D0002115E071
:1029A00040F60001C4F2000188421FD040F6004109
:1029B000C4F20001884219D01FE000BF44F20001B8
:1029C000C4F20101884211D040F20041C4F2010179
:1029D000884212D1416C40F2004340F48062C4F25C
:1029E000010341F400419A42416406D1816801F03B
:1029F0000701062904BF00207047016841F001016A
:102A0000016000207047000040F2A831C2F20001CE
:102A1000884218BF70472DE9F04F81B02DED028B31
:102A200040F2F030C2F20000006840F23841406AE3
:102A300040F2700BC2F20001C2F2000B0968ABF861
:102A4000000040F25C0A496ABBF80420C2F2000AA6
:102A5000BAF804304942821A17B2CB1A00EE107A43
:102A60001FB29FED311AB8EEC00A02EE107A80EE66
:102A7000010AB8EEC22A82EE011A9FED2C2AABF8A9
:102A80000400AAF80010ABF80220AAF80230AAF855
:102A9000041020EE020A10EE100A21EE028A8BEDDD
:102AA000040A8AED048AFDF7E7FC0646DBF80C0011
:102AB0000F46FDF7E1FC9FED1A0B044658EC109B06
:102AC0000D46304639464A464346FDF763FC2246EA
:102AD0002B46FDF7B8FBFDF7E2FCCBF80C0018EE37
:102AE000100AFDF7C9FC0446DAF80C000D46FDF7A4
:102AF000C3FC06460F46204629464A464346FDF794
:102B000049FC32463B46FDF79EFBFDF7C8FCCAF880
:102B10000C00BDEC028B01B0BDE8F04F704700BF68
:102B20009A9999999999C93F0000A5440000484293
:102B3000704700007047000070470000B0B582B0D9
:102B400001680A68CC684B6902F02F05202D04F05B
:102B5000200505D125B102B0BDE8B04002F0FEB9B4
:102B60005FEA027C1EBF03F0010E04F4907313EBC6
:102B70000E0341D1036BD50618D5012B16D114F0E5
:102B8000100313D0002201920A6801924A68019250
:102B9000019A496949064BD4818DC28DC38D002BA2
:102BA00018BF914240F0F48102B0B0BD13062DD59C
:102BB00014F080032AD090F84120212AF4D18268B1
:102BC000B2F5805F03D10269002A00F06782026AD1
:102BD000531C036212784A60C28C013A1304C28407
:102BE000E2D1C86820F08000C860C86840F04000AA
:102BF000C86002B0B0BD00BFD30718BF14F4807323
:102C000040F0D080530700F1D380D8E05206CBD5F6
:102C100014F04002C8D0CA6822F04002CA602021E5
:102C200080F8411002B0BDE8B04000F0DFBB00BF4B
:102C3000C16B0A68526893B2002BB5D0858DAB4248
:102C4000B2D2C285C969B1F5807F00F0A080016869
:102C500051E8031F026821F4807142E80313DBB1DD
:102C6000016851E8031F026821F4807142E80313F0
:102C700093B1016851E8031F026821F4807142E8B2
:102C800003134BB1016851E8031F026821F48071FE
:102C900042E80313002BDAD1016851E8051F0268EE
:102CA00021F0010142E80513BBB3016851E8051F9B
:102CB000026821F0010142E8051373B3016851E88D
:102CC000051F026821F0010142E805132BB30168DA
:102CD00051E8051F026821F0010142E80513002BAD
:102CE000DAD11AE0016851E8051F026821F04001BD
:102CF00042E80513DBB1016851E8051F026821F0C5
:102D0000400142E8051393B1016851E8051F0268CC
:102D100021F0400142E805134BB1016851E8051F5D
:102D2000026821F0400142E80513002BDAD120218E
:102D300080F8421000210163016851E8031F026816
:102D400021F0100142E80313DBB1016851E8031FD1
:102D5000026821F0100142E8031393B1016851E8C1
:102D6000031F026821F0100142E803134BB1016810
:102D700051E8031F026821F0100142E80313002B01
:102D8000DAD1C16B04460846FDF7DCFD204602217E
:102D90004163818DC28D891A89B202B0BDE8B0400D
:102DA000FFF7C8BE436C43F001034364530706D5E5
:102DB000BEF1000F03D0436C43F00203436493075A
:102DC00006D5BEF1000F03D0436C43F00403436407
:102DD000BCF1000F06D55EEA050303D0436C43F057
:102DE00008034364436C002B3FF4DEAE920605D526
:102DF00025B1044602F0B2F8216820464969426CC8
:102E000001F0400102F00802891800F0B98000BF0B
:102E1000016851E8031F026821F4907142E803132E
:102E2000BBB3016851E8031F026821F4907142E8C6
:102E3000031373B3016851E8031F026821F4907112
:102E400042E803132BB3016851E8031F026821F421
:102E5000907142E80313002BDAD11AE0016851E8BF
:102E6000051F026821F0010142E80513DBB101688A
:102E700051E8051F026821F0010142E8051393B1F2
:102E8000016851E8051F026821F0010142E80513BD
:102E90004BB1016851E8051F026821F0010142E8C9
:102EA0000513002BDAD1016B012924D1016851E807
:102EB000031F026821F0100142E80313DBB101682F
:102EC00051E8031F026821F0100142E8031393B197
:102ED000016851E8031F026821F0100142E8031362
:102EE0004BB1016851E8031F026821F0100142E86C
:102EF0000313002BDAD1202180F842100021016356
:102F000001684969490640F1C380016851E8051F1D
:102F1000026821F0400142E80513DBB1016851E885
:102F2000051F026821F0400142E8051393B10168D2
:102F300051E8051F026821F0400142E805134BB13A
:102F4000016851E8051F026821F0400142E80513BD
:102F5000002BDAD1C16B002900F09A8044F651723F
:102F6000C0F60002044608460A65FDF733FD002856
:102F70003FF41AAEE06B016D02B0BDE8B040084707
:102F80000446FFF7D9FD0020606402B0B0BD00BF69
:102F9000891A00BF026852E8032F036822F4907276
:102FA00043E80325BDB3026852E8032F036822F407
:102FB000907243E8032575B3026852E8032F036853
:102FC00022F4907243E803252DB3026852E8032FE0
:102FD000036822F4907243E80325002DDAD11AE049
:102FE000026852E8052F036822F0010243E8052534
:102FF000DDB1026852E8052F036822F0010243E8C0
:10300000052595B1026852E8052F036822F00102F8
:1030100043E805254DB1026852E8052F036822F008
:10302000010243E80525002DDAD1202280F8422054
:1030300000220263026852E8032F036822F01002A4
:1030400043E80325DDB1026852E8032F036822F04C
:10305000100243E8032595B1026852E8032F036884
:1030600022F0100243E803254DB1026852E8032F15
:10307000036822F0100243E80325002DDAD1022272
:1030800089B2426302B0BDE8B040FFF753BD00BF54
:1030900002B0BDE8B040FFF74FBD00BF026A32F892
:1030A000023B6FF35F234B60026295E5002804BF8B
:1030B0000120704710B5044690F8410028B900205F
:1030C00084F84000204600F021F8242084F84100D4
:1030D0002068C16821F40051C160204601F0BEFFA4
:1030E0002068016921F490410161416921F02A01C0
:1030F0004161C16841F40051C16000202021606439
:1031000084F8411084F84210606310BD2DE9F0414D
:1031100086B0006844F60002C4F20002002190422A
:10312000CDE90411CDE90211019177D041F20001FE
:10313000C4F20101884245D045F20001C4F2000109
:10314000884240F09D80002443F630000094C4F291
:103150000200016940F6004541F4801101610169F6
:10316000C4F2020501F480110091009900940168F5
:103170004FF0020841F0040101600168032601F0EC
:1031800004010091009900940168082741F00801AA
:103190000160006801A900F00800009000984FF459
:1031A00080500190A5F58060CDE9028404960597D2
:1031B000FDF736FC0421CDE9011803A92846D0C14A
:1031C000352452E0002043F630010090C4F20201A1
:1031D0004A69252442F010024A614A6902F010024D
:1031E0000092009A00900A6842F001020A600968A1
:1031F00001F00101009100994FF4C0610191022199
:10320000CDE90210032004900720059040F600400D
:10321000C4F20200A0F5406027E000BF43F6300092
:103220000091C4F202000269272442F48022026164
:10323000026902F480220092009A0091026842F032
:1032400008020260006800F00800009000984FF447
:10325000407001900220CDE9020103200490072074
:10326000059040F60040C4F2020001A9FDF7D8FB2A
:10327000204600210022FDF7FBFE2046FDF7E6FE7A
:1032800006B0BDE8F081000090F84230202B07D155
:1032900000294FF0010318BF002A05D118467047D6
:1032A00002231846704700BF002303638162222176
:1032B0008285C285436480F842100169006819B1B3
:1032C000C16841F48071C160416941F0010141610F
:1032D000C16841F02001C1601846704770B544F6DE
:1032E00000060446C4F20006006806F5006140F2DC
:1032F00028058842C2F2000516D0B04240F0758021
:103300002879002818BF70BDA878AA792918897B68
:10331000DFE802F0022A1A222C2947D101202C21B1
:10332000A871A870A97341E028786A792918097EE4
:10333000DFE802F00232222A2C2947D101202C2179
:1033400068712870297641E00130C1B20329A87064
:1033500024BF0321A97129E05B2904BF0120E87083
:103360000020A87105E000BF12291DD10221A9711A
:103370000130A8701AE000BF0130C1B206292870E0
:1033800024BF0321697121E05B2904BF012068701B
:103390000020687105E000BF122915D10221697172
:1033A0000130287012E000BF0021A97155FA80F0A9
:1033B00000F10E0140F21050C2F200000122BDE8FF
:1033C0007040FFF761BF00BF0021697155FA80F0BE
:1033D00000F1180140F25850C2F200000122FFF73C
:1033E00053FF2068B0423FF48BAF70BD70470000C0
:1033F000FEE700002DE9F04383B0044600680F4665
:1034000001680A9D0B9E41F48071994690460160C7
:1034100020464FF0011100222B46009600F0ACF838
:1034200050B120680068C00544BF4FF400702064AC
:10343000032003B0BDE8F083206807F0FE010161BE
:103440000221C0F2010120462A46334600F07AF9F3
:1034500020B1012003B0BDE8F08300BF002002903E
:10346000206832464169029180692946029002989B
:10347000204600F0D3F958B1206C0428E9D1206827
:10348000016841F400710160012003B0BDE8F083E0
:103490002068B9F1010F0AD04FEA182101612046D6
:1034A0002946324600F0BAF90028E5D120685FFAD3
:1034B00088F10161002003B0BDE8F08370B50368B6
:1034C000044653F8140F400711D40E46481C29D067
:1034D00086BB00BF1868400527D4FDF77DFB236835
:1034E00053F8140F400737D518684007F2D500206D
:1034F00070BD00BF18684007F9D41868400514D49F
:1035000018684007F3D4186840050ED418684007BF
:10351000EDD41868400508D4186840074FF0000043
:1035200048BF70BD18684005E4D56FF4806018602E
:10353000042012E0154603E053F8140F4007D6D4D8
:1035400018684005F1D4FDF747FB401B2368B042E3
:10355000F2D958694007EFD42020002120222163AE
:1035600084F83D2084F83E10226C10432064012032
:1035700084F83C1070BD00002DE9F041054600685C
:103580001E46144601F47F0201338FB242D0DDF8AB
:103590001880B2F5803F40F0878040693840C01BFA
:1035A000B0FA80F04009844240F0C8804EB924E06F
:1035B00040693840C01BB0FA80F04009844240F0B6
:1035C000BD80FDF709FBA0EB08012868B142EFD9E7
:1035D00041693940C91BB1FA81F149098C42E7D1EF
:1035E0009BE000BF40693840C01BB0FA80F0400942
:1035F00084424FF0000040F0A280FDF7EDFA286809
:1036000041693940C91BB1FA81F149098C42E9D1BC
:1036100083E000BFB2F5803F24D100BF416939404B
:10362000C91BB1FA81F149098C4240F08780416998
:103630003940C91BB1FA81F149098C4240F07E80C2
:1036400041693940C91BB1FA81F149098C4275D1F0
:1036500041693940C91BB1FA81F149098C42DDD079
:103660006CE000BF81693940C91BB1FA81F1490999
:103670008C4263D181693940C91BB1FA81F1490992
:103680008C425BD181693940C91BB1FA81F149098A
:103690008C4253D181693940C91BB1FA81F1490982
:1036A0008C42DFD04AE000BF80693840C01BB0FACE
:1036B00080F04009844241D146B923E08069384016
:1036C000C01BB0FA80F04009844237D1FDF784FA7C
:1036D000A0EB08012868B142F0D981693940C91BC3
:1036E000B1FA81F149098C42E8D116E0806938408D
:1036F000C01BB0FA80F0400984424FF0000018BFB0
:10370000BDE8F081FDF768FA286881693940C91B76
:10371000B1FA81F149098C42E8D1002020212863C7
:1037200085F83D1085F83E00296C41F020012964A0
:1037300085F83C000120BDE8F08100BF0020BDE815
:10374000F0810000F0B581B0044600681D46436971
:103750008FB203EA0701B94202D1002001B0F0BDE7
:103760004169164601323CD0490512D47EB300BFF0
:10377000FDF732FA411B2068B14203D94169394053
:10378000B9422BD141693940B942E6D04169490576
:10379000EED5016841F4007101606FF48061416110
:1037A000042000212022216384F83D2084F83E106B
:1037B000226C1043206484F83C10012001B0F0BD5D
:1037C00041693940B942C8D041694905E1D4FDF7A2
:1037D00003FA206841693940B942F1D02020E0E77E
:1037E00041694905D5D441693940B942B5D04169EB
:1037F0004905CED441693940B942AED04169490545
:10380000C7D441693940B942A7D041694905C0D4FC
:1038100041693940B942E3D19FE7000070B50368C0
:10382000044653F8140F000611D40E46481C29D044
:1038300086BB00BF1868400527D4FDF7CDF9236883
:1038400053F8140F000637D518680006F2D500208B
:1038500070BD00BF18680006F9D41868400514D47C
:1038600018680006F3D4186840050ED418680006DE
:10387000EDD41868400508D4186800064FF0000021
:1038800048BF70BD18684005E4D56FF480601860CB
:10389000042012E0154603E053F8140F0006D6D4B6
:1038A00018684005F1D4FDF797F9401B2368B04232
:1038B000F2D958690006EFD420200021202221638C
:1038C00084F83D2084F83E10226C104320640120CF
:1038D00084F83C1070BD0000B0B582B040F22804FE
:1038E000C2F2000440F2585004F11801C2F2000084
:1038F0000122FFF7C9FC40F2105004F10E01C2F2A0
:1039000000000122FFF7C0FC00F0E6FC00F08EFC96
:1039100040F2C010C2F20000FCF7E0FF01F038FDF9
:1039200001F024FD40F28044C2F200042046002150
:103930000025FEF7E1FF20460421FEF7DDFF002011
:10394000322102F0D3F80120142102F0CFF8022036
:10395000C82102F0CBF80320012102F0C7F840F2A1
:10396000A830C2F20000FEF79BFB6420FDF744F88C
:1039700000F05CFC04A2002001210C23009501F062
:1039800025F902B0B0BD00BF696E69745F6F6B004E
:1039900082B0FFF7A1FF40F2280540F2240840F270
:1039A000E00746F2C44646F2D0490024C2F20005C0
:1039B000C2F20008C2F20007C0F60006C0F6000915
:1039C000002002F07FF8002818BFFCF761FE0120FC
:1039D00002F078F8002818BF01F0C2FB022002F0C4
:1039E00071F8E8B33878324601284FF000004FF004
:1039F00000014FF00C0304BF3C704A46009401F0F4
:103A0000E5F8387B324601284FF000004FF0000106
:103A10004FF00C0304BF3C734A46009401F0D6F803
:103A2000387E324601284FF000004FF000014FF081
:103A30000C0304BF3C764A46009401F0C7F897F89F
:103A40002400324601284FF000004FF000014FF0F3
:103A50000C0304BF87F824404A46009401F0B6F8EE
:103A6000032002F02FF8002818BFFCF7DBFE68786F
:103A7000012809D1688B697F00BA000CA8F8000002
:103A8000287F698128816C70E878012898D128798D
:103A9000002804BF287CA881EC7091E72DE9F04F45
:103AA00087B0002543F630000695CDE90455CDE9F1
:103AB00002550195C4F20200016840F2000941F08C
:103AC000100101600168C4F2020901F010010191C6
:103AD00001990195016809F5006641F00401016052
:103AE0000168002201F0040101910199019501682A
:103AF0004FF4005B41F080010160016801F080013A
:103B0000019101990195016841F00101016001688D
:103B100001F00101019101990195016841F0020153
:103B20000160016801F002010191019901950168AC
:103B300041F00801016000684FF4005100F00800F6
:103B4000019001983046FDF741F8484620210022B7
:103B5000FDF73CF809F580684046042100224FF04B
:103B6000040AFDF733F81D2002AFCDE9020509F57F
:103B7000805039460495FCF753FF012430463946FE
:103B8000CDF808B0CDE903450595FCF749FF0320C2
:103B900002900220CDE9030548463946CDE9055497
:103BA000FCF73EFF202002A931C148463946059561
:103BB000FCF736FF40463946CDE902A4CDE904556D
:103BC000FCF72EFF07B0BDE8F08F000080B540F293
:103BD000402045F20041C2F20000C4F2000148F268
:103BE000A06200234FF4804CC0F2010280E80E0076
:103BF000C0E9033CC0E90533C0E90733FCF7F2FF35
:103C0000002808BF80BDBDE88040FCF763BE00000F
:103C100080B540F2942045F60001C2F20000C4F2E3
:103C2000000148F2A06200234FF4804CC0F2010270
:103C300080E80E00C0E9033CC0E90533C0E9073362
:103C4000FCF7D0FF002808BF80BDBDE88040FCF72E
:103C500041BE000010B586B040F2E82042F60001F7
:103C60000024C2F20000C4F200017F22C0E9001467
:103C700000F10801CDE90244CDE90044FF231CC155
:103C8000C0E90544FDF714FE002818BFFCF722FE2A
:103C900040F2E820C2F2000001A90122ADF8044080
:103CA0008DF80640CDE90444FDF754FF002818BF05
:103CB000FCF710FE40F20110C0F20100009040F24B
:103CC000E820C2F2000069460122FDF791FE0028BB
:103CD00018BFFCF7FFFD40F2E820C2F2000000210F
:103CE0000022FDF78FFD002818BFFCF7F3FD06B09A
:103CF00010BD000080B540F2083043F60001C2F26A
:103D00000000C4F200014FF4827200234FF4802CB3
:103D100080E80E000A21C0E90333C0E9053CC36115
:103D2000C0E90833C0E90A31FDF7E8FF002808BF01
:103D300080BDBDE88040FCF7CDBD000080B584B0FB
:103D400040F2A8300021C2F2000041F6000240F229
:103D5000CF7C0391CDE90111C4F2000240F2473358
:103D6000C0E9021C01618021C0E900238161FEF7E6
:103D700013F9002818BFFCF7ADFD4FF480500090F8
:103D800040F2A830C2F200006946FEF7DFF90028D1
:103D900018BFFCF79FFD04B080BD000070B59CB05B
:103DA000002540F26030C4F201050021C2F200009B
:103DB000A72240F2E73380261591CDE91311119126
:103DC000CDE90F11CDE90D11CDE90B11CDE90911A7
:103DD000CDE90711CDE90511CDE90311CDE90111B7
:103DE000C0E90052C0E90213C0E904118661FEF780
:103DF000D3F8002818BFFCF76DFD4FF480501290E7
:103E000040F26030C2F2000012A9FEF79FF90028CC
:103E100018BFFCF75FFD40F26030C2F20000FEF711
:103E200039FD002818BFFCF755FD40F26030002432
:103E3000C2F2000010A9CDE91044FEF74FF80028A7
:103E400018BFFCF747FD6020CDE9090440F260305F
:103E5000C2F2000009A90022CDE90B44CDE90D44CE
:103E60000F94FEF707FC002818BFFCF733FD40F263
:103E70006030C2F2000009A90422FEF7FBFB002813
:103E800018BFFCF727FD40F26030C2F2000009A91C
:103E90000822FEF7EFFB002818BFFCF71BFD40F2DD
:103EA0006030C2F2000009A90C22FEF7E3FB0028F3
:103EB00018BFFCF70FFD40F260344FF40050C2F21F
:103EC00000040026069001A920460596CDE9036668
:103ED000CDE901660896FDF7DBFF002818BFFCF767
:103EE000F9FC206844F20001C4F2010188421B96EB
:103EF000CDE91966CDE9176614D0A8422FD100206C
:103F0000169043F63000C4F20200016841F010013F
:103F1000016000684FF4D44100F01000169016982C
:103F2000012010E00020169043F63000C4F2020099
:103F3000016841F0100101600068602100F010008C
:103F40001690169803201791022118910021CDE9AF
:103F500019111B9005F5883017A9FCF761FD1CB0FD
:103F600070BD000080B58CB040F2F03040F20042ED
:103F70000021C2F20000C4F20002C0E900210322C5
:103F80004FF6FF73CDE903210122CDE90011C0E90D
:103F9000021301618161CDE90521CDE90711CDE968
:103FA00009210B9103A9FEF7A1F9002818BFFCF71E
:103FB00091FC40F2F030C2F200006946FDF78EFF3E
:103FC000002818BFFCF786FC0CB080BD80B58CB013
:103FD00040F2384040F600020021C2F20000C4F274
:103FE0000002C0E9002103224FF6FF73CDE903214F
:103FF0000122CDE90011C0E9021301618161CDE91F
:104000000521CDE90711CDE909210B9103A9FEF79F
:104010006DF9002818BFFCF75DFC40F23840C2F291
:1040200000006946FDF75AFF002818BFFCF752FC54
:104030000CB080BDB0B592B040F2804044F20005B3
:104040000021C2F2000040F2CF73C4F201050B91CF
:10405000CDE909110791CDE90511CDE90311CDE9AC
:104060000111A722C0E9021301618021C0E90052B9
:104070008161FDF791FF002818BFFCF72BFC4FF47E
:104080008050089040F28040C2F2000008A9FEF77C
:104090005DF8002818BFFCF71DFC40F28040C2F21A
:1040A0000000FEF7F7FB002818BFFCF713FC6020A8
:1040B00001904FF4FA70029000200390059040F2B6
:1040C0008040C2F2000001A90022FEF7D3FA0028C6
:1040D00018BFFCF7FFFB40F28044C2F2000401A9C4
:1040E00020460422FEF7C6FA002818BFFCF7F2FBB0
:1040F00021680020A9421190CDE90F000E900D908B
:1041000018D00020C4F2010081422FD100200C9071
:1041100043F63000C4F20200016841F01001016072
:1041200000684FF4D44100F010000C900C9801206E
:1041300010E000BF0C9043F63000C4F202000168AA
:1041400041F0100101600068602100F010000C9047
:104150000C9803200D9102210E910021CDE90F1141
:10416000119005F550400DA9FCF75AFC12B0B0BDF6
:1041700080B540F2585045F20001C2F20000C4F28E
:10418000000100234FF00C0C4FF4E13280E80E00E8
:10419000C0E90333C0E905C3C361FEF787FF002808
:1041A00008BF80BDBDE88040FCF794BB80B540F2FD
:1041B000C84041F20001C2F20000C4F20101002334
:1041C0004FF00C0C4FF4E13280E80E00C0E90333ED
:1041D000C0E905C3C361FEF769FF002808BF80BDC1
:1041E000BDE88040FCF776BB80B540F2105044F645
:1041F0000001C2F20000C4F2000100234FF00C0CD9
:104200004FF4E13280E80E00C0E90333C0E905C392
:10421000C361FEF74BFF002808BF80BDBDE88040AA
:10422000FCF758BBFEE70000FEE700002DE9F04F69
:1042300085B040F2402400254FF480760127C2F279
:1042400000040DF1120B0DF113084FF0000900BF2F
:1042500049F0B0008DF8100004A8CDE90007204611
:104260007821002201230296FCF76EFD0DF111006A
:10427000CDE9000720467821002201238DF8115056
:104280000296FCF761FD10208DF81200204678217F
:1042900000220123CDE900B70296FCF755FD4FF04F
:1042A000000A00BF20467821402201238DF81350D8
:1042B000CDE900870296FCF747FD0AF101004FFAAD
:1042C00080FABAF1FF3FEDDCB9F1070F09F10109FE
:1042D000BED305B0BDE8F08F2DE9F04184B0C82011
:1042E000FCF78AFB40F20806C2F20006307840F282
:1042F0004024C2F200048DF80F004FF480780127AB
:104300000DF10F052046782100220123CDE9005749
:10431000CDF80880FCF718FD707878218DF80F0033
:10432000204600220123CDE90057CDF80880FCF794
:104330000BFDB07878218DF80F0020460022012374
:10434000CDE90057CDF80880FCF7FEFCF078782125
:104350008DF80F00204600220123CDE90057CDF84B
:104360000880FCF7F1FC307978218DF80F002046A9
:1043700000220123CDE90057CDF80880FCF7E4FCCA
:10438000707978218DF80F00204600220123CDE9B5
:104390000057CDF80880FCF7D7FCB07978218DF86C
:1043A0000F00204600220123CDE90057CDF80880F8
:1043B000FCF7CAFCF07978218DF80F002046002226
:1043C0000123CDE90057CDF80880FCF7BDFC307A19
:1043D00078218DF80F00204600220123CDE90057F7
:1043E000CDF80880FCF7B0FC707A78218DF80F00CA
:1043F000204600220123CDE90057CDF80880FCF7C4
:10440000A3FCB07A78218DF80F002046002201230A
:10441000CDE90057CDF80880FCF796FCF07A7821BA
:104420008DF80F00204600220123CDE90057CDF87A
:104430000880FCF789FC307B78218DF80F0020463E
:1044400000220123CDE90057CDF80880FCF77CFC61
:10445000707B78218DF80F00204600220123CDE9E2
:104460000057CDF80880FCF76FFCB07B78218DF801
:104470000F00204600220123CDE90057CDF8088027
:10448000FCF762FCF07B78218DF80F0020460022BB
:104490000123CDE90057CDF80880FCF755FC307CAE
:1044A00078218DF80F00204600220123CDE9005726
:1044B000CDF80880FCF748FC707C78218DF80F005F
:1044C000204600220123CDE90057CDF80880FCF7F3
:1044D0003BFCB07C78218DF80F00204600220123A0
:1044E000CDE90057CDF80880FCF72EFCF07C782150
:1044F0008DF80F00204600220123CDE90057CDF8AA
:104500000880FCF721FC307D78218DF80F002046D3
:1045100000220123CDE90057CDF80880FCF714FCF8
:10452000707D78218DF80F00204600220123CDE90F
:104530000057CDF80880FCF707FCB07D78218DF896
:104540000F00204600220123CDE90057CDF8088056
:10455000FCF7FAFB04B0BDE8F08100002DE9F04F54
:104560008BB047B2C0F3C010DDF85090203A01EB99
:10457000400427EAE7711027A4F1500047EA11161A
:1045800001F00F05102BD7B240F0B280049440F236
:1045900040248DF81D004FF001080DF11D00C2F2FE
:1045A00000044FF4807BCDE90008204678210022EA
:1045B0000123CDF808B0FCF7C7FB0DF11E00CDE9D3
:1045C0000008204678210022012305968DF81E6000
:1045D000CDF808B0FCF7B8FB0DF11F00CDE90008DD
:1045E000204678210022012306958DF81F50CDF832
:1045F00008B0FCF7A9FB45F6E4663D01C0F60006ED
:10460000705DB9F1000F039500F0048140F2402481
:10461000C043C2F200048DF820000DF1200A2046AC
:10462000782140220123CDE900A8CDF808B0FCF79D
:104630008BFB77197878BD78C04397F803903E7963
:104640008DF820002046782140220123CDE900A8E2
:10465000CDF808B0FCF778FBE8438DF82000204641
:10466000782140220123CDE900A8CDF808B0FCF75D
:104670006BFB6FEA09008DF820002046782140226C
:104680000123CDE900A8CDF808B0FCF75DFBF043AD
:104690008DF820002046782140220123CDE900A892
:1046A000CDF808B0FCF750FB78797821C0438DF83D
:1046B0002000204640220123CDE900A8CDF808B013
:1046C000FCF742FBB8797821C0438DF820002046E2
:1046D00040220123CDE900A8CDF808B0FCF734FB57
:1046E000F879CDE900A8C0438DF820002046F8E015
:1046F00040F240248DF827004FF0010A0DF1270009
:10470000C2F200044FF48078CDE9000A20467821F7
:1047100000220123CDF80880FCF716FB0AA8CDE99A
:10472000000A20467821002201238DF82860CDF868
:104730000880FCF709FB0DF12900CDE9000A2046AD
:104740007821002201238DF82950CDF80880FCF74C
:10475000FBFA45F6BC4607EB4705C0F6000616F81F
:104760001500B9F1000F00F0718140F24024C04300
:10477000C2F200048DF82A000DF12A0B20467821A0
:1047800040220123CDE900BACDF80880FCF7DCFA1D
:1047900006EB45056878AF78C043EE7895F804904D
:1047A0008DF82A002046782140220123CDE900BA65
:1047B000CDF80880FCF7C8FAF8438DF82A002046A7
:1047C000782140220123CDE900BACDF80880FCF71A
:1047D000BBFAF0438DF82A002046782140220123BD
:1047E000CDE900BACDF80880FCF7AEFA6FEA09000F
:1047F0008DF82A002046782140220123CDE900BA15
:10480000CDF80880FCF7A0FA6879C0438DF82A003B
:10481000CEE100BF40F24029C2F200098DF821002C
:104820000DF1210A4846782140220123CDE900A854
:10483000CDF808B0FCF788FA77197878BD78FC785D
:104840003E798DF821004846782140220123CDE9A8
:1048500000A8CDF808B0FCF777FA48467821402246
:1048600001238DF82150CDE900A8CDF808B0FCF760
:104870006BFA48467821402201238DF82140CDE98A
:1048800000A8CDF808B0FCF75FFA4846782140222E
:1048900001238DF82160CDE900A8CDF808B0FCF720
:1048A00053FA787978218DF8210048464022012377
:1048B000CDE900A8CDF808B0FCF746FAB879782120
:1048C0008DF82100484640220123CDE900A8CDF80B
:1048D00008B0FCF739FAF879CDE900A88DF8210085
:1048E0004846782140220123CDF808B0FCF72CFA85
:1048F000049840F240244F388DF822004FF0010A0E
:104900000DF12200C2F200044FF48078CDE9000AD4
:104910002046782100220123CDF80880FCF714FA04
:10492000059878218DF823000DF12300CDE9000AC8
:10493000204600220123CDF80880FCF705FA0698EE
:1049400078218DF8240009A8CDE9000A204600222C
:104950000123CDF80880FCF7F7F9039845F6E461E8
:10496000C0F600010F181499387A002900F0BC80B5
:1049700040F24024C043C2F200048DF825000DF13E
:10498000250B2046782140220123CDE900BACDF83D
:104990000880FCF7D9F9787ABD7AC043FE7A97F897
:1049A0000C908DF825002046782140220123CDE986
:1049B00000BACDF80880FCF7C7F9E8438DF8250068
:1049C0002046782140220123CDE900BACDF80880A5
:1049D000FCF7BAF9F0438DF82500204678214022F3
:1049E0000123CDE900BACDF80880FCF7ADF96FEAF4
:1049F00009008DF825002046782140220123CDE9C9
:104A000000BACDF80880FCF79FF9787B7821C04385
:104A10008DF82500204640220123CDE900BACDF8CB
:104A20000880FCF791F9B87B7821C0438DF8250008
:104A3000204640220123CDE900BACDF80880FCF7DA
:104A400083F9F87BC0438DF82500B1E040F24024A3
:104A5000C2F200048DF82B000DF12B0B20467821BB
:104A600040220123CDE900BACDF80880FCF76CF9AB
:104A700006EB45056878AE78EF7895F804908DF8E8
:104A80002B002046782140220123CDE900BACDF841
:104A90000880FCF759F920467821402201238DF83F
:104AA0002B60CDE900BACDF80880FCF74DF920461F
:104AB0007821402201238DF82B70CDE900BACDF882
:104AC0000880FCF741F920467821402201238DF827
:104AD0002B90CDE900BACDF80880FCF735F968795C
:104AE0008DF82B0064E000BF40F24024C2F20004C5
:104AF0008DF826000DF1260B204678214022012357
:104B0000CDE900BACDF80880FCF71EF9787ABE7AB4
:104B1000FD7A97F80C908DF82600204678214022E7
:104B20000123CDE900BACDF80880FCF70DF9204645
:104B30007821402201238DF82660CDE900BACDF816
:104B40000880FCF701F920467821402201238DF8E6
:104B50002650CDE900BACDF80880FCF7F5F82046DC
:104B60007821402201238DF82690CDE900BACDF8B6
:104B70000880FCF7E9F8787B78218DF8260020463C
:104B800040220123CDE900BACDF80880FCF7DCF81B
:104B9000B87B78218DF82600204640220123CDE9FC
:104BA00000BACDF80880FCF7CFF8F87B8DF8260026
:104BB0002046782140220123CDE900BACDF80880B3
:104BC000FCF7C2F80BB0BDE8F08F00002DE9F0470C
:104BD00082B092461278002A4BD0DDF828809946A0
:104BE0000D46064608270C2B4FF0000408BF062789
:104BF00016D100BFF0B2E9B2D2B20C23CDF80080DA
:104C0000FFF7ACFC3E44F0B201347A28E0B288BF32
:104C100001351AF8002088BF0026002AEAD128E0D2
:104C2000B9F1100F16D100BFF0B2E9B2D2B2102321
:104C3000CDF80080FFF792FC3E44F0B201347828B2
:104C4000E0B288BF01351AF8002088BF0026002A8C
:104C5000EAD10EE0F0B2D2B229464B46CDF8008040
:104C6000FFF77CFC0134E0B21AF800203E44002A31
:104C7000F0D102B0BDE8F08780EC030AC0ED091A5C
:104C800080ED0A2A704700007047000000F10C0117
:104C900030EE601A81EC030A90ED070A90ED092AC4
:104CA00031EE000AB4EE420AF1EE10FA80ED070A86
:104CB00006DCB1EE422AB4EE420AF1EE10FA03DA53
:104CC000B0EE420A80ED072A90ED002A90ED013AFD
:104CD00090ED064A90ED025A31EE444A23EE000A66
:104CE00022EE012A32EE000A25EE043A90ED0A2A5D
:104CF00033EE000AB4EE420AF1EE10FA80ED080A33
:104D000006DCB1EE422AB4EE420AF1EE10FA03DA02
:104D1000B0EE420A80ED082A80ED061A70470000C6
:104D20007047000080B5FCF727F9BDE8804000F02F
:104D3000F3BE000070B592B006AC20463021FBF700
:104D400077FA002543F640000595CDE90355CDE9F6
:104D500001550095C4F202000168022641F080511D
:104D60000160006800F080500090009847F2000059
:104D70000095C4F20000016841F4804101600068C0
:104D8000102100F48040009000980A200690012035
:104D90000990CDE90A1008200E90A820CDE90F0651
:104DA000042011902046CDE90C65FCF755FB18B1A5
:104DB00072B600BFFEE700BF0F20CDE901064FF439
:104DC000A05004904FF48050059001A80521039550
:104DD000FCF730FA10B172B6FEE700BF12B070BD3A
:104DE0004EF68850CEF20000016841F47001016077
:104DF0007047000040F2A830C2F20000FDF790BBFF
:104E000010B540F6FF3E0368C4F2000E40F2004CBD
:104E10007045C4F2010C25DCB0F1804F2FD040F278
:104E20000042C4F20002904229D040F60002C4F2CF
:104E30000002904223D041F6FF72C4F20002904279
:104E400027DC70453ADCB0F1804F5BD040F2004285
:104E5000C4F20002904255D040F60002C4F20002B3
:104E60004EE000BF40F60042C4F20002904206D07D
:104E7000604504D00022C4F201029042DBD14A68AE
:104E800023F07003134341F6FF72C4F20002904214
:104E9000D7DD43F6FF72C4F20102904220DC42F2F9
:104EA0000002C4F2000290422CD00022C4F201029F
:104EB000904227D0604525D028E000BF40F6004250
:104EC000C4F2000290421DD041F60002C4F200027A
:104ED000904217D041F60042C4F2000210E000BF39
:104EE00044F20002C4F2010290420BD044F60002E8
:104EF000C4F20102904205D044F20042C4F2010221
:104F0000904203D1CA6823F44073134323F0800214
:104F10004B69D1F800E08C681A430260C46240F427
:104F20008062C0F828E0624504BF0969016301217D
:104F300041610169C90708BF10BD016921F0010184
:104F4000016110BD40F25850C2F20000FDF7F6BDFD
:104F5000806B0021C185C184FDF7EEBD81B090F862
:104F60004210222921D183680246B3F5805F09D11E
:104F700052F8281F52F8183C002B63D003685B6876
:104F80000AE000BF52F8281F13B90369002BF5D0BF
:104F900003685B6803F07F030B70116801311160D7
:104FA000C18D01390A04C18502D001B0704700BF2C
:104FB0000168CA6822F02002CA60CA6822F48072BE
:104FC000CA604A6922F001024A61202180F8421039
:104FD00000214163026B012A3CD10163016851E861
:104FE000031F026821F0100142E80313DBB10168DE
:104FF00051E8031F026821F0100142E8031393B146
:10500000016851E8031F026821F0100142E8031310
:105010004BB1016851E8031F026821F0100142E81A
:105020000313002BDAD101680A68D20606D50022E4
:1050300000920A680092496800910099818D01B040
:10504000FDF778BD026852686FF35F2221F8022BEA
:105050008162A5E701B0FEF741B90000B0B5044692
:10506000006804F108030ECB0569194325F4405587
:105070002A4302616269E3691143C268194349F234
:105080000C639A431143C1604169A26921F44071E4
:1050900041F20043114340F48062C4F201039A429A
:1050A000416103D1FCF78CF902E000BFFCF774F911
:1050B000E1694FF69C7563681922C0F6FF75B1F57A
:1050C000004FA0FB02011FD15A00DB0FFBF778F85D
:1050D00048F21F51C5F2EB11A0FB01235A0905F15B
:1050E000805302FB0300322303EBC000A0FB01014D
:1050F0004FF4F87000EA111000EB0210C1F34211F6
:10510000084421688860B0BD9A009B0FFBF758F8EF
:1051100048F21F51C5F2EB11A0FB01235A0902FB13
:105120000500322303EB0010A0FB0101F02000EA90
:10513000511000EB0210C1F343110844216888604C
:10514000B0BD000040F2C840C2F20000FDF7F6BC5E
:1051500040F21050C2F20000FDF7F0BCFEE7000084
:1051600070B52DED0C8B40F25405C2F20005287885
:10517000012867D0002840F0E5809FED768A9FEDFA
:1051800076CAB3EE069AB1EE04AAB3EE0EBA05F1F2
:105190003000B0EE480AF0EE490AB0EE4A1AF0EEDE
:1051A0004B1AB0EE4C2AFFF767FD40F21014C2F222
:1051B00000042046B0EE480AF0EE490AB0EE4A1A62
:1051C000F0EE4B1AB0EE4C2AFFF756FD9FED638AC6
:1051D0009FED5E9A9FED62BAB2EE04DA04F12C0004
:1051E000B0EE480AF0EE490AB0EE4B1AF0EE4D1A56
:1051F000B0EE4C2AFFF740FD40F26814C2F2000402
:105200002046B0EE480AF0EE490AB0EE4B1AF0EE36
:105210004D1AB0EE4C2AFFF72FFD9FED520A9FED7D
:10522000521A04F12C00B7EE002AF0EE490AF0EE13
:105230004A1AFFF721FD287801302870BDEC0C8B4D
:1052400070BD00BF40F21014C2F2000494ED030AD6
:10525000D5ED060A2046FFF719FDD5ED0B0A95EDB1
:105260000F0A05F13000FFF711FD95ED140ABDEEB0
:10527000C00A10EE100A00F0DDFB94ED080ABDEE46
:10528000C00A10EE100A00F0F5FB40F23C20C2F21A
:1052900000000078012813D140F26810C2F200002B
:1052A00090ED030AD5ED0A0AFFF7F0FC94ED0E0A23
:1052B000D5ED050A04F12C00FFF7E8FC07E000BF7C
:1052C00040F26810C2F2000000210162E16440F285
:1052D0003420C2F200000078012815D140F22400E9
:1052E000C2F20000008840F2681600EE100AF8EEE4
:1052F000400AC2F200069FED160A06F12C00FFF7E5
:10530000C5FC96ED130A07E040F268109FED0F0A06
:10531000C2F200000021C16440F26810C2F2000035
:1053200095ED011A90ED082A94ED133A31EE022A18
:1053300031EE031A32EE002A31EE400A85ED0F2AD3
:1053400084ED030ABDEC0C8B70BD00BF00000000B3
:105350000000C8430000F04200C07944CDCC4C3E70
:10536000CDCCCC3D0AD7A33B0AD7A33C80B540F2B5
:10537000F030C2F200003C21FDF772F840F23840F4
:10538000C2F200003C21BDE88040FDF769B8000092
:1053900010B540F26034C2F2000420460021FDF74F
:1053A000ABFA20460421FDF7A7FA20460821FDF7B5
:1053B000A3FA20460C21BDE81040FDF79DBA00007D
:1053C00010B540F23624C2F20004218807291DD806
:1053D0000120DFE801F00513090D051D091C00BFC0
:1053E00000F098F878B911E000F020FA58B90DE013
:1053F000B2EE040A00F07CFA28B907E0B9EE040A1C
:1054000000F076FA10B1208801302080002010BD15
:10541000B1EE040A00F06CFA0028F4D1F6E70000BF
:1054200010B540F23824C2F200042188072929D897
:105430000120DFE801F00511170B21291B2800BF0F
:105440001E2000F0DBF8D0B91CE000BFB2EE040A69
:1054500000F04EFA98B915E0B9EE040A00F048FAE7
:1054600068B90FE000F0E2F948B90BE01E2000F047
:105470005BF920B906E000BF00F04CF810B12088BD
:1054800001302080002010BDB1EE040A00F030FA97
:105490000028F4D1F6E7000010B540F23A24C2F239
:1054A000000421880B292AD80120DFE801F0210B14
:1054B000070B1D2B07110711172900BF00F02AF851
:1054C000D0B91CE0B9EE040A00F012FAA0B916E057
:1054D000B1EE040A00F00CFA70B910E0462000F0BA
:1054E00023F948B90BE000BF00F0A0F920B906E0AD
:1054F0003C2000F083F810B120880130208000208B
:1055000010BD00BFB2EE040A00F0F2F90028F3D19A
:10551000F5E7000010B540F2B004C2F200042278B2
:105520000021042A66D80120DFE802F0041C501094
:10553000610000BF40F23200C2F200000088012882
:1055400058D1B7EE000A00F0B5FA4BE0FBF744FB88
:10555000A168401A40F6B83188424BD300F08CFB6A
:1055600042E000BF40F23000C2F200000088012893
:1055700040D100F081FB9FED200A00F09BFA40F241
:105580007000C2F2000090ED030A40F25C00C2F22B
:105590000000B1EE041A90ED032A40F2681030EEDC
:1055A000010AC2F2000080ED030A40F23C1032EE24
:1055B000010AC2F2000080ED030A00F0FBF9FBF7DC
:1055C0000BFB2178A060013110E000BFFBF704FB6A
:1055D000A168401AB0F5FA6F0CD300F045FBFBF759
:1055E000FBFAA06000F0EEF92078411C0020217049
:1055F00010BD00BF002010BD00000000B0B540F29B
:10560000B004C2F20004A17804295FD8DFE801F0F9
:1056100004482838240000BF40F23200C2F20000E3
:10562000008801284FF0000018BFB0BDB7EE000A97
:1056300000F040FA00F0C6F9A17800200131A17015
:1056400040F27001C2F20001C86040F25C01C2F297
:105650000001C860B0BD00BF0020A0700120B0BD37
:10566000FBF7BAFA2169401AB0F5FA6F2ED300F0B1
:10567000FBFAFBF7B1FA206100F0A4F90AE000BFE1
:10568000FBF7AAFA2169401A40F6B83188421DD3C7
:1056900000F0F2FAA0780130A0700020B0BD00BF89
:1056A00040F23001C2F20001098801290ED140F216
:1056B0005C05C2F2000595ED030A01EE100AB8EE92
:1056C000411AB4EE410AF1EE10FA01DA0020B0BD41
:1056D00000F0D2FA9FED130A00F0ECF940F27000EE
:1056E000C2F2000090ED030AB1EE041A40F2681015
:1056F00030EE010AC2F2000095ED032A80ED030AA4
:1057000040F23C1032EE010AC2F2000080ED030AC2
:1057100000F050F9FBF760FAA1782061481CA070F6
:105720000020B0BD00000000B0B540F2B004C2F2ED
:105730000004E17803294BD8DFE801F0023422307D
:1057400040F23200C2F20000008801284FF0000051
:1057500018BFB0BDB7EE000A00F0ACF900F032F9A6
:10576000E17800200131E17040F27001C2F20001E5
:10577000C86040F25C01C2F20001C860B0BD00BF69
:10578000FBF72AFA6169401AB0F5FA6F20D300F0EE
:105790006BFAE0780130E0700020B0BD0020E070CE
:1057A0000120B0BD40F23001C2F200010988022997
:1057B0000ED140F25C05C2F2000595ED030A01EE40
:1057C000100AB8EE411AB4EE410AF1EE10FA01DA0D
:1057D0000020B0BD00F050FA9FED130A00F06AF906
:1057E00040F27000C2F2000090ED030AB1EE041A1C
:1057F00040F2681030EE010AC2F2000095ED032A73
:1058000080ED030A40F23C1032EE010AC2F20000C1
:1058100080ED030A00F0CEF8FBF7DEF9E178606175
:10582000481CE0700020B0BD0000000010B540F240
:10583000B004C2F2000462780021032A54D8012087
:10584000DFE802F00210445040F23200C2F20000E1
:105850000088012848D1B7EE000A00F02BF900F0CB
:10586000B1F83CE040F23000C2F2000000880228AB
:105870003AD100F001FA9FED1D0A00F01BF940F249
:105880007000C2F2000090ED030A40F25C00C2F228
:105890000000B1EE041A90ED032A40F2681030EED9
:1058A000010AC2F2000080ED030A40F23C1032EE21
:1058B000010AC2F2000080ED030A00F07BF8FBF75A
:1058C0008BF96178E06001310BE000BFFBF784F9F0
:1058D000E168401AB0F5FA6F06D300F0C5F96078B8
:1058E000411C0020617010BD002010BD00000000B0
:1058F00010B540F2B004C2F2000422790021032A5C
:1059000046D80120DFE802F00230222E40F270007B
:10591000C2F2000090ED031A40F25C00C2F20000F7
:1059200090ED032A40F2681030EE011AC2F2000036
:1059300080ED031A40F23C1032EE400AC2F2000041
:1059400080ED030A00F036F81AE000BFFBF744F9D7
:10595000A169401A40F6B831884228BF00F08CF99E
:1059600001200021217110BDFBF736F9A169401A11
:1059700040F6B83188420BD300F076F900F022F8F7
:10598000FBF72AF92179A06101310020217110BDB6
:10599000002010BD40F22800C2F200000021017179
:1059A0007047000040F2CC00C2F2000001210170FB
:1059B0007047000040F23C20C2F20000012101705B
:1059C0007047000040F23420C2F200000121017053
:1059D000704700000138B0FA80F0420940F2004000
:1059E000C4F202000421FBF7F1B8000080B5FBF718
:1059F000D1FAFFF79FF9FEF751F8FEF7D7FBFEF754
:105A00009DF9FEF7CBF9FEF703F9FEF713FBFEF75E
:105A100021F9FEF7DBF8FEF7D9FAFEF76BF9FEF78E
:105A2000A1FAFEF7A5FBFEF7DFFBFDF7B1FF0020B3
:105A300080BD00004FF61841CFF6FF7110F57A7F58
:105A4000C8BF01468AB201EBD23109B2B0F57A7F04
:105A500040F260304FEA6101C2F20000C8BF4FF46B
:105A6000FA710068C1F5FA7201F5FA714263816357
:105A7000704700004FF61841CFF6FF7110F57A7F9E
:105A8000C8BF01468AB201EBD23109B2B0F57A7FC4
:105A900040F260304FEA6101C2F20000C8BF4FF42B
:105AA000FA71006801F5FA72C1F5FA71C263016416
:105AB0007047000040F25400C2F2000080ED010A7D
:105AC0007047000009280ED840F2A05100EB4000BA
:105AD000C2F2000101EB800111F8080F002200283A
